:0400000061EF05F0B7
:08000800046ED8CF05F0E0CF33
:1000100006F00001E9CF0CF0EACF07F0E1CF08F0DD
:10002000E2CF09F0D9CF0AF0DACF0BF0F3CF12F01C
:10003000F4CF13F0FACF14F000C00EF001C00FF0AF
:1000400002C010F003C011F09DA22AEF00F09EB292
:10005000C1EF00F09DAA30EF00F09EBA51EF00F022
:100060000EC000F00FC001F010C002F011C003F08C
:100070000CC0E9FF07C0EAFF078E08C0E1FF09C016
:10008000E2FF0AC0D9FF0BC0DAFF12C0F3FF13C0B2
:10009000F4FF14C0FAFF045006C0E0FF05C0D8FF0B
:1000A00010009EAAFED7AECF3CF03C502B08D8B42F
:1000B0003CC03DF03C504308D8B43CC03EF03C50FE
:1000C0004D08D8B43CC03FF03C505408D8B43CC0B4
:1000D00040F03C504908D8B43CC041F03D502B089A
:1000E0000EE13E5043080BE13F504D0808E14050FF
:1000F000540805E14150490802E1010E2B6E3C50C5
:100100002B08D8B43CC03DF03C504308D8B43CC0A8
:100110003EF03C504C08D8B43CC03FF03C5049083D
:10012000D8B43CC040F03C505008D8B43CC041F07A
:100130003D502B080EE13E5043080BE13F504C0868
:1001400008E14050490805E14150500802E1010E24
:100150002C6E2B2C01D002D02C2C0CD03C520AE05F
:10016000D851D82B036A420FE96E000E0320EA6EC5
:100170003CC0EFFFD851950801E2D86B9E9A30EF52
:1001800000F0010EFC27FC51FD5D06E3BE68BD508A
:10019000CF0B1009BD6E0CD0FC51FD5D08E2FC5187
:1001A000270805E3BE6ABD50CF0BBD6E01D0FC6BC6
:1001B0009E9230EF00F041542B434D4744413D2285
:1001C00044454C20414C4C220D0A00004C6F6164A8
:1001D000696E672E2E2E2E2E000041542B434E4D5D
:1001E000493D322C310D0A0041542B435341530DEC
:1001F0000A0041542B434D47533D223031363833AA
:10020000313733333131220D0A0048656C6C6F2071
:1002100042617962792100000C0057656C636F6D53
:100220006521212100000C004C6F636B6564210087
:100230004154480D0A0041542B434D47533D22255C
:1002400073220D0A00004D6174206B6861753A20BD
:10025000000041542B434D47523D310D0A000C0024
:100260004E686170204D6174204B6861753A0000E2
:100270005F5F5F5F5F000C004D6174206B686175AC
:100280002044756E672100000C00556E6C6F636B27
:10029000656421000C004D6174206B68617520530A
:1002A0006169210041542B434D47533D2225732260
:1002B0000D0A000043616E682042616F3A20546865
:1002C00069657420626920646120626920766F200C
:1002D0006869657520686F6121005761726E696E8B
:1002E0006721212100004154480D0A0041542B434D
:1002F0004D47523D310D0A000C004D6F69204E688C
:100300006170204C616900000C004C6F636B656488
:1003100021000C004E686170204D4B2063753A003F
:100320005F5F5F5F5F000C004E686170204D4B2087
:100330006D6F693A00005F5F5F5F5F000C0058619E
:1003400063206E68616E204D4B206D6F693A00002E
:100350005F5F5F5F5F000C00446120646F69206D28
:100360006174206B6861752100000C004D4B206B9F
:10037000686F6E67206B686F702100000C004D6124
:1003800074204B686175205361692100010EEA6E8B
:10039000100EE96EEF500DE0060E016E006A002EA1
:1003A000FED7012EFBD77B0E006E002EFED7EF2E60
:1003B000F3D71200010115B102D08C9801D08C88BE
:1003C000959815B302D08C9A01D08C8A959A15B560
:1003D00002D08C9C01D08C8C959C15B702D08C9E41
:1003E00001D08C8E959E00008D849694020E006E36
:1003F000002EFED700D000008D94969400011200CC
:100400000101166B9588000E83B8010E1613958AAC
:10041000000E83BA010E006ED890003600501613FD
:10042000958C000E83BC010E006E00360036FC0E6B
:10043000001600501613958E000E83BE010E006E3E
:10044000003600360036F80E00160050161316C19E
:1004500001F0000112009588958A958C958E8D8209
:10046000969200008D8496940000CADF01C015F1B9
:100470008D94969400008D84969400D000D0000056
:10048000BFDF01C014F18D9496949598959A959C30
:10049000959E01011539006EF00E001600501411E2
:1004A000016E00015AEF02F09694969096928D900C
:1004B0009690D1D701C014F1010101AE02D0000124
:1004C000F8D7125302E18D9001D08D8096900000F4
:1004D0008D92969200008D9496941339146F0F0E9E
:1004E000141714C115F1000165DF010113510F0B41
:1004F000146F156F00015EDF1200280E01010C6FF2
:100500000C0E0D6F010E0E6F060E0F6F8D949694EC
:100510008D9096908D9296929598959A959C959E91
:100520009694969096920F0E106F00012FDF010E99
:1005300001010B6F0B5103080CE3030E156F000153
:1005400039DF050E0101106F000120DF01010B2BC7
:10055000F1D7020E156F00012DDF050E0101106F9E
:10056000000114DF01010B6B0B51030811E3036A57
:100570000B510C0FE96E010E0320EA6EEFCF10F164
:10058000126B10C113F100018FDF01010B2BECD7AF
:100590000001BFEF05F0010E01010C5DFC0F29E227
:1005A000040F0001FBEF02F001010D5302E18A90FC
:1005B00001D08A8093901DD0000101010D5302E10A
:1005C0008A9201D08A82939214D0000101010D53C6
:1005D00002E18A9401D08A8493940BD00001010136
:1005E0000D5302E18A9601D08A86939602D00001CB
:1005F000010100011200F2CF0DF0F29EE824F76A2B
:10060000F7361B0FF66E060EF7220A00F550FA6E4B
:100610000800F5500DBEF28EF96EA805BA05CC059E
:10062000DE05010E01010B6F0B51040809E30BC13C
:100630000CF1010E0D6F0001AEDF01010B2BF4D7A1
:100640000001F4EF05F001010F2D01D003D0400EA1
:10065000106F01D0106B010E0E5D10271051800934
:10066000116F126B136F00011FDF120001010D519A
:10067000070A000107E00B0A0CE0060A16E0020A6E
:100680001CE022D0010E01010E6F0F6F0001DBDFB5
:1006900022D00101126B010E136F000105DF020E63
:1006A0000101106F000172DE16D0010E01010E6F04
:1006B000020E0F6F0001C7DF0ED00101126B100E8A
:1006C000136F0001F1DE07D0010E0101126F0DC1A1
:1006D00013F10001E9DE12000900F5520CE0F6CF3B
:1006E0000BF1F7CF0CF1F5CF0DF1C0DF0BC1F6FF29
:1006F0000CC1F7FFF1D712000900F5520DE0F6CF5B
:100700000CF1F7CF0DF1F5509EA8FED7AD6E0CC1E0
:10071000F6FF0DC1F7FFF0D712009EA8FED7AD6E11
:1007200012000CC103F001010BC1E9FF0CC1EAFF8B
:10073000EF5239E00CC110F10BC10FF10EC112F1F3
:100740000DC111F112C103F011C1E9FF12C1EAFF9D
:10075000EF5216E00FC1E9FF10C1EAFFEFCF13F12E
:1007600012C103F011C1E9FF12C1EAFFEF50135D9E
:1007700007E10F2BD8B4102B112BD8B4122BE2D7D2
:1007800012C103F011C1E9FF03C0EAFFEF5205E116
:100790000BC101F00CC102F009D00B2BD8B40C2B0B
:1007A0000001BFD70101000E016E026E00011200B0
:1007B0000900F6CF0CF1F7CF0DF1F5509EA8FED74A
:1007C000AD6E0CC1F6FF0DC1F7FF01010B2F01D07B
:1007D00002D00001EDD700011200EF5210E0EACF85
:1007E0000CF1E9CF0BF1EF509EA8FED7AD6E0CC116
:1007F000EAFF0BC1E9FFE92AD8B4EA2AEED71200D2
:100800002C6A2CC02BF0416A41C040F040C03FF040
:100810003FC03EF03EC03DF0D86B01010B6B0B5169
:1008200096080AE3036A0B51420FE96E000E03209B
:10083000EA6EEF6A0B2BF3D7B60EF66E010EF76E6B
:1008400000015ADF020E01010C6FFA0E106F000159
:100850009DDD01010C2FF9D70001120001010B6B86
:10086000010E0C6F0D6B000196DE938881B807D0E6
:10087000938881A8FDD7010E01010B6F0001938AB7
:1008800081BA07D0938A81AAFDD7020E01010B6FAE
:100890000001938C81BC07D0938C81ACFDD7030EF3
:1008A00001010B6F0001938E81BE07D0938E81AE44
:1008B000FDD7040E01010B6F0001010E01010C6F49
:1008C0000D6F000168DE020E01010C6F0D6B00015F
:1008D00062DE938881B807D0938881A8FDD7050E82
:1008E00001010B6F0001938A81BA07D0938A81AA14
:1008F000FDD7060E01010B6F0001938C81BC07D060
:10090000938C81ACFDD7070E01010B6F0001938E14
:1009100081BE07D0938E81AEFDD7080E01010B6F0B
:100920000001020E01010C6F010E0D6F000133DE9C
:10093000030E01010C6F0D6B00012DDE938881B851
:1009400007D0938881A8FDD7090E01010B6F000124
:10095000938A81BA07D0938A81AAFDD70A0E010132
:100960000B6F0001938C81BC07D0938C81ACFDD7B9
:100970000B0E01010B6F0001938E81BE07D0938E89
:1009800081AEFDD70C0E01010B6F0001030E0101BA
:100990000C6F010E0D6F0001FEDD040E01010C6FE6
:1009A0000D6B0001F8DD938881B807D0938881A88A
:1009B000FDD70D0E01010B6F0001938A81BA07D09C
:1009C000938A81AAFDD70E0E01010B6F0001938C53
:1009D00081BC07D0938C81ACFDD70F0E01010B6F4A
:1009E0000001938E81BE07D0938E81AEFDD7100E8D
:1009F00001010B6F0001040E01010C6F010E0D6F60
:100A00000001C9DD01010BC101F00001120001016B
:100A10000B51000A000103E0010A29E04FD0010157
:100A20000C6B0D6B0D51040816E3036A0D512D0F6D
:100A3000E96E000E0320EA6EEFCF10F1036A0D514C
:100A4000370FE96E000E0320EA6EEF50105D01E1F2
:100A50000C2B0D2BE7D70C51050804E1010E016E9C
:100A60002ED003D0000E016E2AD0000127D0010144
:100A70000E6B0F6B0F51040816E3036A0F512D0F15
:100A8000E96E000E0320EA6EEFCF10F1036A0F51FA
:100A9000320FE96E000E0320EA6EEF50105D01E1A7
:100AA0000E2B0F2BE7D70E51050804E1010E016E46
:100AB00006D003D0000E016E02D00001010100013A
:100AC0001200F86AD09E078EB886080EAF6E020E2E
:100AD000B06EA60EAC6E900EAB6E2A6A2B6A2C6AB4
:100AE0003C6A3D6A3E6A3F6A406A416AD86BFC6B69
:100AF000040EFD6FC150C00B0F09C16E070EB46E1E
:100B00001ED012001600003134372A323538303307
:100B1000363923616263642300D93031363833318A
:100B200037333331310038343136383331373333BA
:100B30003131004C6F636B005365656E0000000E31
:100B4000F86E0B0EF76E020EF66E0900F550006E91
:100B5000000A13E00900F550016EE8BE05D00F0B46
:100B6000EA6E0900F5CFE9FF01BC090001AC0900FC
:100B7000F5CFEEFF004EE9D7F9D7F86ABED4000EE4
:100B80000609CA6E820ECB6E94948B940C0EBD6EC9
:100B9000B76AB66ABE68BD50CF0B1009BD6E9D82A4
:100BA000C00EF2129D8AF212FE6BFE5104081BE386
:100BB000036AFE51370FE96E000E0320EA6EF2CF92
:100BC0000BF1F29EFEC0A9FFA69CA69EA680A8508F
:100BD00001010BBFF28EEF6E140E106F0001C6EC18
:100BE00001F0FE2BE2D71DD5040EFD6FFC6BCC0E81
:100BF000F66E010EF76E70DD300E0101096FFA0E10
:100C0000106F0001C6EC01F00101092FF8D7DA0ED0
:100C1000F66E010EF76E00016FDD020E0101096F25
:100C2000FA0E106F0001C6EC01F00101092FF8D790
:100C3000E80EF66E010EF76E00015EDD020E010198
:100C4000096FFA0E106F0001C6EC01F00101092FC7
:100C5000F8D7F20EF66E010EF76E00014DDD020EB2
:100C60000101096FFA0E106F0001C6EC01F00101DD
:100C7000092FF8D70A0EF66E020EF76E00013CDD62
:100C80001A0E4BDD020E0101096FFA0E106F000102
:100C9000C6EC01F00101092FF8D7180EF66E020E0E
:100CA000F76E000119DD040E01010E6F010E0F6FCA
:100CB0000001C9DC1A0EF66E020EF76E0DDD040E91
:100CC0000101096FFA0E106F0001C6EC01F001017D
:100CD000092FF8D7010E0001FF6F260EF66E020EE7
:100CE000F76EFADC050E01010E6F010E0F6F0001A9
:100CF000AADC280EF66E020EF76EEEDC2C2C92D0DB
:100D000092948984FA0E0101106F0001C6EC01F083
:100D100092948994080E0101096FFA0E106F000178
:100D2000C6EC01F00101092FF8D7300EF66E020E65
:100D3000F76E0001E1DC020E0101096FFA0E106F7F
:100D40000001C6EC01F00101092FF8D70C6B420E2F
:100D50000B6F0E6BD90E0D6F0001E3DC02C00AF1C0
:100D600001C009F10101095313E10A5311E10C6BB0
:100D7000420E0B6F0E6BE50E0D6F0001D2DC02C050
:100D80000AF101C009F10101095302E10A5348E0E7
:100D9000360EF66E020EF76E090E0B6F000108DDBF
:100DA000EA6AD90EE96E19DD410EF66E020EF76E93
:100DB000030E01010B6F0001FBDC020E0101096F44
:100DC000FA0E106F0001C6EC01F00101092FF8D7EF
:100DD000460EF66E020EF76E00018EDC0101006B0E
:100DE000005104080FE3036A0051370FE96E000E4B
:100DF0000320EA6EEFCF09F109519EA8FED7AD6E30
:100E0000002BEED71A0E000188DC020E0101096FDB
:100E1000FA0E106F0001C6EC01F00101092FF8D79E
:100E20000001EEDC2B2C5AD092948984FA0E010139
:100E3000106F0001C6EC01F092948994520EF66E88
:100E4000020EF76E59DC080E0101096FFA0E106FE1
:100E50000001C6EC01F00101092FF8D70C6B420E1E
:100E60000B6F0E6BF20E0D6F00015BDC02C00AF11E
:100E700001C009F10101095302E10A532DE000010B
:100E8000FF6B2A6A92908980BBDC92948984FA0E67
:100E90000101106F0001C6EC01F092948994960E46
:100EA0000101106F0001C6EC01F092948984FA0EE2
:100EB0000101106F0001C6EC01F092948994020EBA
:100EC000FD6F0101096FFA0E106F0001C6EC01F011
:100ED0000101092FF8D7B8D0000192DCBFDC01C0B6
:100EE00029F029500D08D8A4C4D1FF2DC2D1060E77
:100EF0000101016F026B5E0EF66E020EF76E0001CD
:100F00006CEC03F0600EF66E020EF76E6CEC03F004
:100F1000060E01010E6F020E0F6F000123EC03F0AD
:100F2000700EF66E020EF76E6CEC03F001010251CA
:100F3000040846E3000192DC01C029F029501008A2
:100F400001E1CBD62950000803E22950030806E24C
:100F5000295004082DE229500B082AE3036A0101F5
:100F600002512D0F016E000E032203C00AF1010E83
:100F7000295C036A180FE96E000E0320EA6EEFCFBA
:100F80000BF10AC1EAFF01C0E9FF0BC1EFFF01C18C
:100F90000EF1020E0F6F000123EC03F00101012B93
:100FA0002A0E0D6F000136EC03F00101022B000147
:100FB000320E0101106F0001C6EC01F0B7D701013C
:100FC000FA0E106F0001C6EC01F001010B6B00017D
:100FD0001EDD289001B0288028A04CD0FF6B2A6A23
:100FE000760EF66E020EF76E6CEC03F0780EF66E6F
:100FF000020EF76E6CEC03F092948984FA0E0101F4
:10100000106F0001C6EC01F092948994960E0101D4
:10101000106F0001C6EC01F092948984FA0E010170
:10102000106F0001C6EC01F092948994929089802F
:10103000020EFD6F0101096FFA0E106F0001C6EC80
:1010400001F00101092FF8D7880EF66E020EF76E37
:1010500000016CEC03F0050E01010E6F010E0F6F25
:10106000000123EC03F08A0EF66E020EF76E6CECB4
:1010700003F0FFD028B0FDD02A2A940EF66E020E9F
:10108000F76E6CEC03F0960EF66E020EF76E6CECDB
:1010900003F092948984020E0101096FFA0E106F19
:1010A0000001C6EC01F00101092FF8D79294899450
:1010B0002A500308D8A4B9D0036B92948984A40E53
:1010C000F66E020EF76E090E0B6F0001D8EC03F0FE
:1010D000EA6AD90EE96EEDEC03F0AF0EF66E020E81
:1010E000F76E030E01010B6F0001D8EC03F0020E46
:1010F0000101096FFA0E106F0001C6EC01F0010149
:10110000092FF8D7B40EF66E020EF76E00017CECD4
:1011100003F01A0E8DEC03F0020E0101096FFA0EB6
:10112000106F0001C6EC01F00101092FF8D70C0E79
:101130000D6F000136EC03F0040E01010E6F010E7D
:101140000F6F000123EC03F0DA0EF66E020EF76E5D
:101150006CEC03F0929289820101035361E12C2C23
:101160002AD092948984FA0E106F0001C6EC01F027
:1011700092948994040E0101096FFA0E106F000118
:10118000C6EC01F00101092FF8D7E60EF66E020E4B
:10119000F76E00017CEC03F0020E0101096FFA0EFC
:1011A000106F0001C6EC01F00101092FF8D7000112
:1011B00000EC04F001012B2C32D092948984FA0EB9
:1011C000106F0001C6EC01F092948994EC0EF66E5B
:1011D000020EF76E7CEC03F0080E0101096FFA0EA7
:1011E000106F0001C6EC01F00101092FF8D70C6B5C
:1011F000420E0B6F0E6BF70E0D6F000191EC03F0BA
:1012000002C00AF101C009F10101095302E10A53C8
:1012100002E0010E036F000100EC04F001019DD714
:101220002A6A9294899492928992030E096FFA0E17
:10123000106F0001C6EC01F00101092FF8D7F80E7C
:10124000F66E020EF76E00016CEC03F0FA0EF66E0D
:10125000020EF76E6CEC03F0030E0101096FFA0E3B
:10126000106F0001C6EC01F00101092FF8D7000151
:101270003ED629500E0838E1FF5336E1010EFF6FCC
:1012800092948984020E0101096FFA0E106F000119
:10129000C6EC01F00101092FF8D79294899492903D
:1012A0008990040E0001FD6F020E0101096FFA0E14
:1012B000106F0001C6EC01F00101092FF8D7080EEC
:1012C000F66E030EF76E00016CEC03F0050E0101E3
:1012D0000E6F010E0F6F000123EC03F00A0EF66E85
:1012E000030EF76E6CEC03F029500F08D8A450D20F
:1012F000FF53D8A44DD2060E0101046F056B120EE8
:10130000F66E030EF76E00016CEC03F0140EF66E31
:10131000030EF76E6CEC03F0060E01010E6F020E69
:101320000F6F000123EC03F0200EF66E030EF76E34
:101330006CEC03F001010551040849E300012EECB7
:1013400004F001C029F02950100803E101017CD606
:1013500000012950000803E22950030806E2295041
:1013600004082DE229500B082AE3036A0101055104
:101370002D0F016E000E032203C00AF1010E295C3D
:10138000036A180FE96E000E0320EA6EEFCF0BF12F
:101390000AC1EAFF01C0E9FF0BC1EFFF04C10EF172
:1013A000020E0F6F000123EC03F00101042B2A0E43
:1013B0000D6F000136EC03F00101052B0001320E28
:1013C0000101106F0001C6EC01F0B4D70101FA0E63
:1013D000106F0001C6EC01F001010B6B000107EC7E
:1013E00005F0289001B0288028A0A7D19294898484
:1013F000FA0E0101106F0001C6EC01F0929489947D
:10140000960E0101106F0001C6EC01F092948984E0
:10141000FA0E0101106F0001C6EC01F0929489945C
:10142000260EF66E030EF76E6CEC03F0280EF66EC9
:10143000030EF76E6CEC03F0060E01010E6F020E48
:101440000F6F000123EC03F0360EF66E030EF76EFD
:101450006CEC03F0060E0101066F076B07510408E0
:1014600049E300012EEC04F001C029F029501008D6
:1014700003E10101E9D500012950000803E22950E8
:10148000030806E2295004082DE229500B082AE33C
:10149000036A01010751320F016E000E032203C0DF
:1014A0000AF1010E295C036A180FE96E000E032091
:1014B000EA6EEFCF0BF10AC1EAFF01C0E9FF0BC1F1
:1014C000EFFF06C10EF1020E0F6F000123EC03F0D7
:1014D0000101062B2A0E0D6F000136EC03F001010D
:1014E000072B0001320E0101106F0001C6EC01F064
:1014F0000101B4D7FA0E106F0001C6EC01F03C0EEA
:10150000F66E030EF76E6CEC03F03E0EF66E030EF5
:10151000F76E6CEC03F0060E01010E6F020E0F6FFA
:10152000000123EC03F0500EF66E030EF76E6CEC28
:1015300003F0060E0101066F076B0751040849E32B
:1015400000012EEC04F001C029F02950100803E13D
:1015500001017AD500012950000803E2295003084F
:1015600006E2295004082DE229500B082AE3036AF9
:10157000010107512D0F016E000E032203C00AF175
:10158000010E295C036A180FE96E000E0320EA6E53
:10159000EFCF0BF10AC1EAFF01C0E9FF0BC1EFFF7A
:1015A00006C10EF1020E0F6F000123EC03F00101E2
:1015B000062B2A0E0D6F000136EC03F00101072BFC
:1015C0000001320E0101106F0001C6EC01F00101B3
:1015D000B4D7FA0E106F0001C6EC01F0010E010144
:1015E0000B6F000107EC05F0289001B0288028A0BF
:1015F00076D092948984FA0E0101106F0001C6EC36
:1016000001F092948994960E0101106F0001C6ECCE
:1016100001F092948984FA0E0101106F0001C6EC6A
:1016200001F092948994560EF66E030EF76E6CECF0
:1016300003F0580EF66E030EF76E6CEC03F001012A
:10164000086B085104083EE3036A0851370F016E26
:10165000000E032203C00AF1036A0851320FE96E3B
:10166000000E0320EA6EEFCF0BF10AC1EAFF01C0C2
:10167000E9FF0BC1EFFF036A0851370FE96E000E57
:101680000320EA6EEFCF09F1F250006EF29E08C11E
:10169000A9FF09C1A8FFA69CA69EA6840F01550E0E
:1016A000A76EAA0EA76EA682A6B2FED7A694005079
:1016B000F212140E0101106F0001C6EC01F00101DD
:1016C000082BBFD7030E096FFA0E106F0001C6EC8E
:1016D00001F00101092FF8D7B7D42DD0000128B0AF
:1016E00029D092948984020E0101096FFA0E106FBD
:1016F0000001C6EC01F00101092FF8D792948994FA
:101700006A0EF66E030EF76E00016CEC03F06C0EC1
:10171000F66E030EF76E6CEC03F0030E0101096F19
:10172000FA0E106F0001C6EC01F00101092FF8D785
:10173000000176D601012DD0000128B029D0929465
:101740008984020E0101096FFA0E106F0001C6ECC8
:1017500001F00101092FF8D7929489947C0EF66E5E
:10176000030EF76E00016CEC03F07E0EF66E030EB6
:10177000F76E6CEC03F0030E0101096FFA0E106FA7
:101780000001C6EC01F00101092FF8D70001B3D523
:101790000101320E106F0001C6EC01F07EEF06F081
:0217A000030044
:020000040030CA
:0E00000004CC380E0087A1000FC00FE00F40A7
:00000001FF
;PIC18F4550
;CRC=AAE0  CREATED="08-Mar-18 21:26"
